:10000000B80A002009050000490500005D2F000026
:1000100000000000000000000000000000000000E0
:100020000000000000000000000000004905000082
:10003000000000000000000049050000253B000012
:100040004905000049050000490500004905000078
:100050004905000049050000490500004905000068
:100060004905000049050000FD3200004905000077
:100070004905000049050000490500004905000048
:100080002131000049050000490500004905000034
:100090004905000049050000D9330000192E000071
:1000A0004905000049050000490500004905000018
:1000B0004905000049050000490500004905000008
:10040000FFFFFFFFFFFFFFFFFFFFFFFFFFFFFEFFFD
:10041000984A0000000002000000000000000000F8
:1004200000000000000000000000000000000000CC
:1004300010B5064C2378002B07D1054B002B02D0BA
:10044000044800E000BF0123237010BDACF0FF1F83
:1004500000000000044A000008B5084B002B03D040
:100460000748084900E000BF07480368002B03D095
:10047000064B002B00D0984708BDC0460000000086
:10048000044A0000B0F0FF1FA8F0FF1F00000000AA
:10049000164B002B00D1144B9D46402292029A1A13
:1004A000924600218B460F461348144A121A03F055
:1004B000B6FB0F4B002B00D098470E4B002B00D003
:1004C00098470020002104000D000D48002802D0AC
:1004D0000C4800E000BF03F073FB2000290003F08C
:1004E00091F803F057FBC04600000800B80A00204E
:1004F0000000000000000000ACF0FF1FB802002068
:10050000000000000000000072B6094809490A4ACC
:1005100002600A6003F00EFB62B60849084A094B04
:100520009B1A03DD043BC858D050FBDCFFF7B0FF3B
:1005300080E100E080E200E0FFFFFFFF2C4A0000C6
:1005400040F0FF1FACF0FF1FFEE7C04602B471464B
:1005500049084900095C49008E4402BC7047C04606
:10056000002934D00123002210B488422CD3012466
:100570002407A14204D2814202D209011B01F8E7FB
:10058000E400A14204D2814202D249005B00F8E7B4
:10059000884201D3401A1A434C08A04202D3001BE0
:1005A0005C0822438C08A04202D3001B9C08224313
:1005B000CC08A04202D3001BDC082243002803D051
:1005C0001B0901D00909E3E7101C10BC7047002883
:1005D00001D00020C04307B4024802A14018029095
:1005E00003BDC046190000000029F0D003B5FFF795
:1005F000B9FF0EBC4243891A1847C0467047C0462F
:1006000002780B7801300131002A01D09A42F7D0EC
:10061000D01A70470278437812061B041A43C37835
:100620001A438378101C1B0218437047030E0B708B
:10063000030C4B70030A8B70C87070470A6803681C
:10064000534003604A684368534043608A68836844
:1006500053408360CB68C2685340C3607047F0B5B5
:1006600006684468FF252D04271C310E82682F4040
:1006700009060F43FF210902BC46171C0F406346C1
:100680003B439C46C368FF271F4063461F430760E8
:10069000131C270E2B403F063B43C7680F403B43CC
:1006A000FF2737401F43C3684760170E2B403F06A4
:1006B0003B43371C0F403B433540FF27C66827406C
:1006C0001F43330E1B061D430C40FF23291C2143EF
:1006D0001A400A438760C260F0BD0000044B1B2231
:1006E0000340DB095343034A104040005840704721
:1006F000808080807F7F7F7F10B5041CFFF7EEFF36
:100700000823221CDA41211C1023D9410B1C534021
:10071000434044401822D441181C604010BD026878
:10072000F0B5C768FF252D04110E86682F40090615
:100730000F43FF210902BC46371C44680F40634643
:100740003B43FF2727401F430760131C270E2B4006
:100750003F063B43C7680F403B43FF2737401F43DB
:100760004760231C370E2B403F063B43171C0F40AE
:100770003B439C46C3683540FF27C6681F4063461D
:100780001F43330E1B061D430C40FF23291C21432E
:100790001A400A438760C260F0BD70B5051CFFF7C0
:1007A0009DFF041CFFF79AFF061CFFF797FF031C31
:1007B0006B40201C5E4068400822191CD1417040EB
:1007C0005C4018224840D4411023DE416040704014
:1007D00070BDF0B589B00022030C0791040A010E28
:1007E00005930491069403920192151C131C049F17
:1007F000079E5F40FFB2F1187E1EBE4376B20978B5
:10080000F611F6B2C9B2371C0F40B5433D43059F00
:10081000FF2637405F40FFB20297BC4601277F4268
:10082000BC44029F6446BC4367B2FF11FFB202970B
:100830000F40BC46019C029FBC436746274301977B
:10084000069F012437405F40FFB2BC466442A44487
:100850006446BC4367B2FF11FFB202970F40BC462B
:10086000029C039F06405E40A743F6B264463C43A9
:10087000771EB7437FB2FF11FFB23940BA430A4334
:1008800001338021039449008B42B0D1019E2D0693
:1008900034042C43039F22433B02101C184309B02D
:1008A000F0BD0000F0B5061C08CE9508013385B0F8
:1008B0009B00AA000F1C029301920024019B9C4202
:1008C00005D03819FFF7A6FE30510434F6E7361983
:1008D00064420394019500240127019A029B9A42E5
:1008E00022D2331F1868AC4201D1013701E0002C3D
:1008F0000AD11823D8410D49FFF76BFF0C4B002498
:10090000DB5D1B06584006E0062D04D9042C02D1FD
:100910000649FFF75EFF039A019BB258013350402E
:1009200001C601930134D8E705B0F0BDEC450000E5
:10093000EC47000038B50B4D041C291C0068FFF77C
:1009400048FF291C20606068FFF743FF291C606096
:10095000A068FFF73EFF291CA060E068FFF739FFA1
:10096000E06038BDEC450000F0B503680D1C141CB8
:10097000191C042285B0061C91430A2903D00C2BB4
:1009800001D003F0FFF8281CFFF744FE0090281D5B
:10099000FFF740FE0190281C0830FFF73BFE029055
:1009A000281C0C30FFF736FE311D03906846FFF718
:1009B00045FE351C14350127336868469F421BD21B
:1009C000FFF7B8FF6846FFF74AFE0098FFF794FE6E
:1009D00000900198FFF790FE01900298FFF78CFEBF
:1009E00002900398FFF788FE291C03906846FFF7E2
:1009F00025FE10350137DFE7FFF79CFF6846FFF75C
:100A00002EFE6846291CFFF719FE0098211CFFF7EF
:100A10000DFE211D0198FFF709FE211C02980831E7
:100A2000FFF704FE211C03980C31FFF7FFFD05B012
:100A3000F0BD000038B50B4D041C291C0068FFF701
:100A4000C8FE291C20606068FFF7C3FE291C606097
:100A5000A068FFF7BEFE291CA060E068FFF7B9FEA2
:100A6000E06038BDEC460000F0B50768141C0423B4
:100A70003A1C87B0061C0D1C9A430A2A03D00C2F7F
:100A800001D003F07FF8281CFFF7C4FD0290281D59
:100A9000FFF7C0FD0390281C0830FFF7BBFD049052
:100AA000281C0C30FFF7B6FD3F01F7190590391DE2
:100AB00002A80C3FFFF7C2FD01973768019E7D1E1B
:100AC000002D1CD002A8FFF72AFE02A8FFF7B2FFF4
:100AD000311C02A8FFF7B2FD0298FFF75EFE0290FC
:100AE0000398FFF75AFE03900498FFF756FE049010
:100AF0000598FFF752FE103E0590013DE0E7019B8F
:100B00003F01DF1B02A8FFF70AFE103702A8FFF71C
:100B100091FF02A8391CFFF791FD0298211CFFF7F5
:100B200085FD211D0398FFF781FD211C04980831E4
:100B3000FFF77CFD211C05980C31FFF777FD07B00E
:100B4000F0BD70B5151C0E1CF4220021041C03F02E
:100B500066F8182D05D0202D05D00A23102D0AD1B6
:100B600002E00C2300E00E23311C2A1C2360201C11
:100B7000FFF798FE70BD03F005F8F7B5089C0190EB
:100B80000D1C171C1E1C002802D00868904201D3BF
:100B900002F0F8FF002B01D1002CF9D109990029AE
:100BA000F6D00B9A002AF3D000282BD0002C29D0A5
:100BB0003B1A0093A34200D900940199009A0818A7
:100BC000311C03F023F8009A2968B6185318A41AA8
:100BD0002B60BB4216D10B980199002C02D10A9AC6
:100BE000904701E0099B984700232B600AE02968A1
:100BF0000029CDD10B98311CBC4206D10A9A9047EE
:100C0000F619E41BBC42F2D216E0099B9847F7E7BD
:100C1000286800943B1A9C4200D900930199009ADD
:100C20000818311C02F0F2FF009A2968B618531810
:100C3000A41A2B60BB42ABD2002CE9D1F7BD30B572
:100C400085B0099C089D019402940A9C0095039428
:100C5000FFF793FF05B030BDF0B5171C85B000223B
:100C600002900D1C039301920A9A002A24D02E6848
:100C70000A9CBB1B9C4200D91C1C019B002B05D16C
:100C8000029A03999019221C02F0C9FF002E03D189
:100C9000BC4201D101230193A619BE4205D10C9893
:100CA00002990B9A9047002301E02A6813192B60E0
:100CB0000A9B1B1B0A93D7E705B0F0BDF0B587B0C0
:100CC000141C1A1C0CAB1B78061C04936B461733C0
:100CD0001A700E9A0D1C109F012A10D0002A4BD0BA
:100CE000022A19D1012200920F9A02970192221C26
:100CF000FFF7A5FF0F9A01230093019229E00DAAA7
:100D000011781A784A401A700E9A029700920F9A38
:100D1000291C0192221C21E0012200920F9A0297C5
:100D20000192221CFFF78BFF0DAA1378049A9342BD
:100D300017D00E9B221C023B00930F9B029701933E
:100D4000301C049B291CFFF787FF0F9B0122009298
:100D500001930297301C291C221C0DABFFF76FFF7B
:100D60000AE00E9A0297013A00920F9A301C019203
:100D7000291C221CFFF770FF07B0F0BD70B5036897
:100D8000041C88B018680023834206D0D65CCD5C72
:100D900075406E46F5540133F6E7201C04AA28304E
:100DA0006946012300F05AF92368626D1B68D31865
:100DB000636508B070BD10B5021C1832041CFFF743
:100DC000DDFF0123A36510BD10B5021C0832041C11
:100DD000FFF7D4FF0123A36510BD1FB5041C6A46AD
:100DE0002830012300F03AF92368626D1B68D3189C
:100DF00063651FBD70B5161C0A6888B0041C0D1C05
:100E0000102A01D002F0BEFE2822002102F007FFC6
:100E10002A682378002A05D06846002102F0FFFEE8
:100E20006A4613786A466B68301C6946984768467C
:100E300004A900F0D6F804A8011C00F0E7F8211C72
:100E400004A8083100F0ACF804A8011C00F0DEF89A
:100E5000211C183104A800F0A3F860C408B070BDCC
:100E60007FB51026041C321C6846002102F0D7FE14
:100E7000251C201C6B46403521686268283000F034
:100E8000E4F8281C321C002102F0C9FE2B78002354
:100E900023656365A3657FBDF0B58C46016889B0A5
:100EA0000E68041C2349002B1BD0036D0F20D5189E
:100EB00028400025AA4205D1151C002B02D1676DE0
:100EC0007D427D41A36D002B01D002F05BFE002A24
:100ED00002D1002D07D1F8E7002804D1002D05D05C
:100EE00001E01D1C00E001250B1C00E0124B201C42
:100EF0005030271C079040370092019102930394D1
:100F0000381C0799321C6346FFF737FE002D0ED0C0
:100F1000226D002300930193B31A0293074B0494AC
:100F20000393381C0799321C8023FFF7C7FE09B0D2
:100F3000F0BDC046DB0D0000C90D0000B70D00007C
:100F400008B5836D002B01D102F01CFE0268031C62
:100F50003033081C1268191C02F058FE08BD0278D4
:100F6000437812061B041A43C3781A438378101C73
:100F70001B021843704730B5051C0020031C1C1CC5
:100F80006C40E4B2621EA24352B2CC18D211247853
:100F9000D2B21440904301332043022BEFD130BD35
:100FA00003681A0E0A701A0C4A701A0A8A70CB70FB
:100FB00043681A0E0A711A0C4A711A0A8A71CB71A7
:100FC00083681A0E0A721A0C4A721A0A8A72CB7253
:100FD000C3681A0E0A731A0C4A731A0A8A73CB73FF
:100FE000704738B50C1C051CFFF7B9FF2060281DA1
:100FF000FFF7B5FF6060281C0830FFF7B0FFA06066
:10100000281C0C30FFF7ABFFE06038BD73B5002340
:101010000C1C01A90B7087234B70C3685D00E56051
:101020008268DB0F56003343A3604368D20F5E0033
:10103000324362600068DB0F420013432360C00F3D
:10104000FFF799FF4540E56073BD08B50160426058
:101050000A680830191C02F0D9FD08BDF0B5161C4D
:10106000026887B01568041C01910093009800285D
:101070001ED0271C08370023AB4207D00198F95C2B
:10108000C25C4A4002A9CA540133F5E7236860688C
:101090005B6802A93A1C9847301C2A1C391C02F0D4
:1010A000B5FD019A009B521901927619013BDCE7CC
:1010B00007B0F0BDF0B5171C026887B01468051CB6
:1010C0000E1C0193019B002B20D02B6868689B6845
:1010D000311C02AA9847281C08300023A3420BD0D9
:1010E000C15C08228C46D2186946525C6146009267
:1010F0004A40FA540133F1E7311C221C02F086FD0C
:10110000019A3619013A3F190192DBE707B0F0BDA9
:101110000020704708B501F04DFC08BD08B501F08E
:10112000B1FB08BD08B5101C191C029A01F048FC5F
:1011300008BD08B5081C111C1A1C01F079FC08BD7B
:1011400008B5081C111C01F0C1FC08BDC2788378E9
:1011500012021A43437812021A4312020378101C37
:10116000184370470B0A017043700B0C090E837013
:10117000C170704782690239023A031C0020914213
:1011800003D29889DB6A4843C0187047036810B5DA
:10119000002B11D01A1C117820290BD93A2901D023
:1011A0000132F8E7591C1C788A4205D1302C03D152
:1011B00002330360002001E00120404210BD38B539
:1011C000041C0D1C002803D100232B60092011E012
:1011D0000368002BF8D01A78002AF5D01989828884
:1011E0009142F1D15878FFF795FF01231840EBD1D8
:1011F00024682C6038BD10B50023CC5CC454013386
:101200009342FAD110BD031CC87E8A7E00021043AF
:10121000032B05D14B7D0A7D1B0213431B0418438E
:101220007047130A8A76CB760378032B03D1120C0E
:101230000A75120A4A757047002370B51A1C0C1CF7
:10124000C569511CAA5C55B2202D0BD0052D00D1CB
:10125000E522092903D1E5182E266E720133E5181F
:101260006A7201330B2901D00A1CE9E7E318002256
:101270005A72C269D37A2372C569281C1C30FFF7E1
:1012800065FF2060281C1630FFF760FFE080000C2F
:10129000A08070BDF8B5056B071C34370123041C12
:1012A000391C40782A1CFFF744FF0123002814D181
:1012B000626AE070AB1AE269934201D300230CE04A
:1012C000A678012EFAD9E3696078ED18391C2A1C3A
:1012D0000123FFF72EFF013EF3E7181CF8BD08B508
:1012E000C27800239A4202D0FFF7D4FF031C181CD7
:1012F00008BD0000036BF7B5041C0E1C00259942C5
:1013000011D0FFF7ECFF051E0DD10127221C6178DB
:10131000009706483432331CFFF704FF002801D041
:101320003D1C7E422663281CFEBDC0469E03000075
:10133000002310B5C37001235B420363041CFFF755
:10134000D9FF031C0420002B2AD1164B0320E25C9A
:10135000154B1202E35C1A43144B12B29A421FD18E
:10136000231C34331B78E92B06D0636B104A022010
:101370001A40104B9A4213D1201C6A30FFF7E6FE48
:101380000D4B0002000A984209D0201C8630FFF75E
:10139000DDFE0A4BC018431E9841400000E00020CB
:1013A00010BDC046330200003202000055AAFFFF04
:1013B000FF00FF00EB00900046415400BABEABCCEA
:1013C000F0B500230B608BB00F1C161CFFF7DEFE80
:1013D0000B23051E00DA47E1A54B8200D458002CF0
:1013E00000D13EE13C6023780127BE43002B0DD0A5
:1013F0006078FFF78FFE074008D13B1C002E00D11C
:1014000032E1410700D42FE10A232DE10023E8B2A5
:1014100023706070FFF782FE0323C20700D523E12B
:10142000002E03D00A23410700D51DE1201C002116
:10143000FFF77EFF0025022821D1FD225200A618C9
:10144000331F1B780020834202D0301CFFF77EFE42
:1014500018235B196946043558501036102DEFD10A
:10146000002606AA95590320002D05D0201C291C12
:10147000FFF75EFF012809D90436102EF1D10428A8
:1014800000D1F0E0012801D90D23EDE0231C403309
:101490001A78013B1B7812021A4312B280239B0078
:1014A0009A42F1D1231C4B33221C1B784A3212780A
:1014B0001B021A43019204D1201C5830FFF746FE4C
:1014C0000190019BE361231C44331F787B1EA770AE
:1014D000012BD9D8231C41331E78A681002ED3D0EE
:1014E000731E1E42D0D1231C4633221C1B7845326A
:1014F00012781B021A43111C029262810907C3D1A0
:10150000231C48331878013B1B780002184303D191
:10151000201C5430FFF71AFE231C4333221C1B7877
:10152000423212781B021A430492ADD0019A0299FA
:101530007A430592049A0B0905999B185B1803934B
:101540009842A1D3C01A311CFFF70AF800289BD09B
:10155000484B0326984205D8474B002683427641E4
:1015600002239E1B049A0399AB18871C4A19A76192
:1015700025626362E262032E14D1231C5F33221CB6
:101580001B785E3212781B02134300D07CE7029A6C
:10159000002A00D078E7201C6030FFF7D7FDBF009D
:1015A000A06210E00299002900D16DE7059AD318D6
:1015B000A362022E01D17F0005E003237B430122B9
:1015C0005B081740DF192D4B0199FF187F0AB942BC
:1015D00000D259E701235B426361236180232371B9
:1015E000032E35D1231C6533221C1B7864321278FC
:1015F0001B021343012B2BD1691C201CFFF77AFE21
:10160000002825D11E4B2071E25C1E4B1202E35CC8
:101610001A431D4B12B29A421AD1201C3430FFF7E4
:1016200095FD1A4B984213D186229200A018FFF71D
:101630008DFD174B98420BD187239B00E018FFF7D5
:1016400085FD8821890060616018FFF77FFD2061BA
:10165000104A2670138801339BB213802381002324
:1016600002E00C2300E00123181C0BB0F0BDC046C3
:10167000CCF0FF1FF5FF0000F50F0000FF01000098
:10168000330200003202000055AAFFFF52526141AE
:1016900072724161C8F0FF1FF0B5041C85B00E1CCA
:1016A000171C0225012978D98269914275D20378E5
:1016B0000193AB4244D0032B55D0012B6DD14B0885
:1016C0005B18426A590A89180393FFF713FE051E37
:1016D00063D1039B01330293039BDA05019BD20D77
:1016E0001E40A218FBB2002E08D0131C303319790B
:1016F0000F230B40F9B209010B43DBB230321371F7
:10170000029A0123E370636A510AC918201CFFF78B
:10171000F1FD051E41D1029AD305DB0DE318002E21
:1017200002D03F09FFB208E01A1C303211790F22B3
:1017300091433F0A3A400F1C174330331F712AE090
:10174000436A090AC918FFF7D5FD051E25D1FF23F5
:101750005B0076001E40A319303330361F71A61986
:101760003F0A777117E0426AC9098918FFF7C2FD7D
:10177000051E12D1FE235B00B6001E40A6193436AA
:10178000301CFFF7E3FC3F01010F09073F09394314
:10179000301CFFF7E7FC0123E370281C05B0F0BD07
:1017A000F7B5041C0D1C0126012959D98269914203
:1017B00056D20378022B2DD0032B3FD0B3424FD10A
:1017C0004F087F18436A790AC918FFF793FD00286C
:1017D00002D00126764243E07A1CFF05FF0D636AC2
:1017E000E719510A01923037C918201C3F79FFF7D9
:1017F00081FD0028EDD1019AD305DB0DE4183034CA
:1018000023791B021F43354201D03E0928E03F05E2
:101810003E0D25E0436A090AC918FFF76BFD002851
:10182000D7D1FF235B006D001D406319303564196B
:10183000303366791B7936021E4311E0426AC909CA
:101840008918FFF757FD0028C3D1FE204000AD00E6
:1018500005406419201C3430FFF778FC0601360976
:10186000301CFEBDF7B5071C01910468002906D1A4
:101870002669002E13D0A269964210D210E0201CD7
:101880000199FFF78DFF012845D9431C02D10120A2
:10189000404241E0A26990423ED3019E00E0012611
:1018A000351CA36901359D4204D3012E01D80020C7
:1018B00032E002253868291CFFF772FF002806D0A5
:1018C000012828D00130E2D0B542EAD1EFE7012269
:1018D000201C291C5242FFF7DFFE002819D1019A73
:1018E000002A08D1A2696369023A256193420AD8A5
:1018F000013B636107E0201C01992A1CFFF7CCFE25
:101900000028EFD005E02379012213432371281C1E
:1019100002E00128BBD00120FEBDF8B5061C0D1C5D
:101920000468012901D802202FE0A3699942FAD264
:10193000002A07D0111C0122201C5242FFF7ACFEE6
:10194000002822D13068291CFFF72AFF071E01D189
:1019500000201AE00128E6D0431C15D0201C291CC9
:101960000022FFF799FE00280FD1A3696269991E32
:101970008A4205D201326261227901210A43227131
:101980009F42E5D23D1CDDE70120F8BD70B58568BA
:101990000023041C066803619D420ED13378022B9C
:1019A00002D9B36A002B07D17389002B01D1022021
:1019B00021E0B36AA36115E01D1CB389002B0CD193
:1019C000291C2068FFF7ECFE051C431C12D00128DF
:1019D000EDD9B3699842F3D3E9E7301C291CFFF72E
:1019E000C9FBA061A3696561002BE0D03436E661D4
:1019F000002000E0012070BD70B5041CFFF76FFCF3
:101A0000002848D12378032B3DD12379012B3AD1EB
:101A1000251C8D21343589002B1C621800261E7070
:101A200001339342FAD11C4B5522E2541B4BAA229C
:101A3000E254221C522335322B70211C1370612377
:101A400053703731412286200A7080007221215460
:101A50001348215413496254134AA35487239B000B
:101A6000E0186169FFF77EFB882189006018216911
:101A7000FFF778FB226A607801322263291C012378
:101A8000FFF757FB2671002160780A1CFFF758FB0F
:101A9000431E9841C0B270BD320200003302000004
:101AA000190200001A0200001B020000F0B5836951
:101AB00085B0051C0191046802690427002B6CD0D5
:101AC000203202920298364A904266D8C205D20D60
:101AD00003925BD169690133AB61002905D1628949
:101AE0004309934252D3A96157E0A3890298013B6D
:101AF000420A1A424AD1201CFFF752FE061E012E4E
:101B000001D8022749E0411C01D1012745E0A26923
:101B1000904235D3019B002B01D1AB613DE0281CE5
:101B20006969FFF79FFE0727061E36D00128E8D017
:101B3000701CEAD0201CFFF7D2FB0028E5D18D21D4
:101B4000231C89003433621800271F70013393422D
:101B5000FAD1201C311CFFF70DFB2063A3899F42A3
:101B60000BD20123E370201CFFF794FB0028CCD19B
:101B7000236B013701332363F0E7226BD71B276305
:101B80006E61201C311CFFF7F5FAA8610398029BD7
:101B9000241834342B61EC610027381C05B0F0BDEB
:101BA000FFFF1F00F7B50668041C0D1C01960023FB
:101BB000EB562F2B01D10135F9E75C2BFBD000232D
:101BC000A3602B781F2B3FD8231C2B3380221A7045
:101BD000201CFFF7DBFE96E02021197001339342B1
:101BE000FAD10022111C082001316B18013B1E782C
:101BF000F3B2202B2FD86D18002A73D0621CD17F2E
:101C0000E52901D10521D1770022202199425241B5
:101C1000261C92002B363270201C2768FFF7B6FE78
:101C2000002834D03378002856D15A076BD4A379D2
:101C3000DE0655D52269019ED105C90D711830788F
:101C40003431FFF7E0FAA060261C2036221C0096F3
:101C5000331C2B32C0E72F2B05D05C2B07D102E0C1
:101C60005C28C8D1013168562F28F9D1FAE72E2B0C
:101C700044D0824236D276B2002E33DB224E377801
:101C8000002F31D07FB29F422CD00136F7E7381CAD
:101C9000A169FFF72FFB0028C4D1E2691378002B5C
:101CA00018D0D17A3F230B40A371D17A08230B407F
:101CB0000BD10099D05CC95C401A0A2B03D00133C8
:101CC0000028F6D001E00028ACD0201C0021FFF74E
:101CD000EDFEA5E70420A5E7042814D1034212D1A4
:101CE000052010E006200EE01E1C613E192E01D8D2
:101CF000203BDBB2009EB354013275E70B28F1D0D4
:101D000008220B2070E7FEBDF747000038B50568D4
:101D1000041C0423A16900291ED0281CFFF7EAFA3D
:101D2000002820D1E3691A78002A1BD0D97A3F23F2
:101D30000B40A371E52A07D02E2A05D00F2B03D024
:101D400020229343082B10D1201C0021FFF7AEFE68
:101D5000002808D1031CDDE7181E06D00022A2616E
:101D6000181C02E00420031CF8E738BD70B5051C00
:101D70000668FFF70BFE041E10D1301CA969FFF79F
:101D8000B9FA041E0AD1EA691378E52B0AD0002BB0
:101D900008D0281C0121FFF789FEECE7042C17D19D
:101DA000072415E0301CA969FFF7A4FA041E0FD11F
:101DB000EB691A1C20320021197001339342FAD1C9
:101DC000291CE86920310B22FFF715FA0123F37073
:101DD000201C70BD1FB5019003A8141C0091039135
:101DE000FFF7D4F90B22002818DB0E4A8000835835
:101DF000002B01D000211970019B002B01D0002184
:101E000019701350002B08D00022012C06D168460F
:101E100001A9FFF7D5FA021C00E01A1C101C04B03F
:101E200010BDC046CCF0FF1FF0B593B0041C059167
:101E3000171C0920002C00D1DCE03F26164005A825
:101E400006A9321CFFF7BCFA002800D0D0E00699A2
:101E500007AD0791281C0599FFF7A4FE002805D1BE
:101E60006B4647331B787F2B00D906201C231F426B
:101E700050D0002809D0042802D1281CFFF776FF93
:101E800008231E43002808D0B2E0AA7911231A4281
:101E900000D0A8E07A0700D5A1E0330743D5FFF7CB
:101EA00037F9071CE869391C0E30FFF75BF9E86960
:101EB000391C1630FFF756F9E9692023CB72069AD0
:101EC000EB691078191C04930392FFF79CF90499AD
:101ED0000022071C0398FFF7A4F9EB6900221A7788
:101EE0005A779A77DA77069B0121D97097421AD0F0
:101EF0001B6B281C391C0393FFF70FFD002877D1BB
:101F000006980399FFF7F6F9069B013F1F61002829
:101F100009D06DE000286BD1AB79D90661D4BA073E
:101F200001D5D9075FD4320701D540231E43069F50
:101F3000ED693B6B656223623878291CFFF763F912
:101F4000A060281C1C30FFF701F92760E0603B8986
:101F5000251C8A21A3802835002389006374E3614E
:101F6000636126742B1C621800211970013393429F
:101F7000FAD1B20639D5E6688E4236D06661BF899D
:101F8000A1687F02BE420FD92068FFF709FC011E3D
:101F9000012904D9013043425841C0B200E0022077
:101FA000F61B0028EED000E00020A16100281FD120
:101FB000F3051AD0069F381CFFF7DCF8031C02203B
:101FC000002B15D0760A9B19E361797801270097D9
:101FD00009482A1CFFF7A6F8002808D105E00820C8
:101FE00006E0042004E0072002E0002002E0381CA4
:101FF0000023236013B0F0BDA60D0000F0B51F1C38
:1020000089B0002305913B6007A9041C161CFFF74B
:10201000D6F8002800D0A3E0607C002800D09FE024
:10202000237C0720D90700D49AE0E2686169531A3B
:102030009E4239D91E1C37E06369DA0500D07DE085
:1020400007998A89511E5A0A0A4003922FD0079B8A
:10205000A169181C0493FFF78DF8002838D0039964
:10206000750A40180290002D43D0049A93896A188B
:102070009A4200D95D1A049BDF205978000100952F
:10208000059A029BFFF74EF800281CD1237C7F2B7A
:1020900020D86D02059B61695B1905934B1963613B
:1020A0003A68761B53193B60002EC5D157E0002BD0
:1020B00001D1A06803E02068A169FFF771FB012846
:1020C00006D9421C02D10120607449E0A061BEE73C
:1020D0000220F9E7E169029A881AA842D9D2059B41
:1020E000211C40028022181828319200FFF783F843
:1020F000CFE7E26902998A421ED0237C7F2B0CD95C
:10210000049B211C587828310123FFF712F800287E
:10211000D9D1227C7F2313402374079A012551785B
:10212000221C00950F482832029BFEF7FBFF002877
:1021300002D06574281C13E0029BE361626980236E
:10214000D105C90D9B005B1A351E9D4200D91D1C8F
:102150002831611805982A1CFFF74DF89AE7301CC2
:1021600009B0F0BD070E0000F0B51F1C89B00023B8
:1021700005913B6007A9041C0492FFF720F8002892
:1021800000D0C0E0607C002800D0BCE0237C0720A9
:10219000990700D4B7E063690499CA189A4250D2EB
:1021A000DB4304934DE06369DA0500D095E0079ABC
:1021B00096895A0A013E3240029246D0237C7F2BF8
:1021C00063D807990391081CA169FEF7D3FF002883
:1021D0006AD0029A049B86185D0A67D00399AA18F0
:1021E0008B899A4201D9029A9D1A039B05995878C6
:1021F000321C2B1CFEF79DFF00283DD1E269911B8C
:10220000A9420CD2059B4902201C80225918920039
:102210002830FEF7F0FF227C7F23134023746D02E9
:1022200062690599AB18E2684919059163619342A7
:1022300000D2131CE3603968049A4B19521B3B60AF
:102240000492049B002BAED10CE0002B04D1A168BA
:10225000201C00290CD101E0A169201CFFF702FB22
:10226000011E05D1237C40221343237400204AE041
:10227000012919D04B1C02D10120607443E0A268EF
:10228000A161002A9AD1A16098E7079B211C587888
:102290002831E2690123FEF74CFF0028ECD1227CB3
:1022A0007F23134023748CE70220E6E7E169B14203
:1022B00012D06269E3689A420ED2039A01255178DE
:1022C000221C009511482832331CFEF72BFF0028F2
:1022D00002D06574281C16E0E6616369049DD80588
:1022E0008023C00D9B001B1A9D4200D91D1C283065
:1022F0002A1C20180599FEF77EFF227C80235B4272
:10230000134323748CE709B0F0BDC0467C0E000077
:10231000F7B501A9041CFEF752FF051E3DD1237C31
:102320005A063AD55BB2002B0EDA019B211C587875
:102330002831E2690123FEF7FCFE012500282CD19B
:10234000227C7F2313402374FEF7E2FE216A071CE0
:102350000198FEF7CFFF051E1FD1666A2022F37A8F
:10236000311C1343F372A2682068FEF75AFF301C39
:102370001C30E168FEF7F6FE301C1630391CFEF703
:10238000F1FE01980123B574F574C370FFF734FBB7
:10239000237C402293432374051C281CFEBD13B5E7
:1023A000041CFFF7B5FF002806D1201C01A9FEF789
:1023B00006FF002800D1206016BD0000F0B587B0F0
:1023C0000D1C05A9041CFEF7FAFE002800D097E0BA
:1023D000607C002800D093E0E3689D4203D9227C12
:1023E000910700D41D1C002263696261954201D1EE
:1023F000002555E0059A96897602002B12D0311CF3
:10240000681E5F1EFEF7ACF8311C0390381CFEF707
:10241000A7F8039B834205D373423B406361ED1AE7
:10242000A1690FE0A16800290BD1201CFFF71AFA5F
:10243000011E012930D0421C02D1012060745FE0EE
:10244000A060A1610029D3D0B5421BD96269AD1B40
:1024500093196361237C9A0705D5201CFFF702FAC4
:10246000011E04D10DE02068FFF79AF9011C4B1CF6
:10247000E3D0012910D9059B9B6999420CD2A16137
:10248000E2E7051C626953196361EB05B0D005985A
:10249000FEF770FE002801D10220CFE76D0A451932
:1024A0006369E1688B4204D9227C40210A43E360DE
:1024B00022740020DB05834222D0E26995421FD0BE
:1024C000237C271C28377F2B0BD9059B391C587878
:1024D0000123FEF72EFE0028AFD1227C7F2313407C
:1024E0002374059A01265178064800963A1C2B1C45
:1024F000FEF718FE002802D06674301C00E0E5618B
:1025000007B0F0BD381000001FB5041C019109236D
:1025100000282CD001A803A90022FEF751FF0028B3
:1025200022D1039A201C22600199FFF73BFB00286F
:1025300013D1231C2B331B787F2B08D8A379DA0601
:1025400011D5039BE1691878FEF75DFEA060039A40
:10255000201C1389A380FFF719FA042803D0002355
:10256000984204D000E0052000232360031C181CBF
:1025700004B010BD73B50E1C01A9051CFEF71FFEAB
:10258000041E19D1281C002E02D1FFF7FFF912E01A
:10259000FFF7BCFBFB2318420DD17472AB69002B13
:1025A00003D0281C311CFEF747FE281C0021FFF732
:1025B0007DFA042800D0041C201C76BD70B5A0B0A4
:1025C000019068460091FEF7E1FD01A803A90222EF
:1025D000FEF7F6FE002876D1039A0AA801990A921E
:1025E000FFF7E0FA00286ED16B4653331B785F2269
:1025F00093430620002B66D1119904AC0B31201CAB
:102600001522FEF7F8FD15A80AA92C22FEF7F3FD06
:1026100015A80099FFF7C6FA002809D1179B0C9A54
:10262000082093424FD1199B0E9A93424BD101E05F
:10263000042848D115A8FFF799FB002843D11C9D19
:102640006946281C13220D301231FEF7D4FD237881
:102650002022039C13430126EB72E670EB7ADA0624
:1026600022D50C9B179A93421ED0291C2078FEF786
:10267000CAFD011C201CFEF77DFD011C0220002963
:1026800021D0201CFEF736FE039B00281BD11A1C0C
:10269000553212782E2A07D1191C181C5431179A5A
:1026A000FEF7BFFD039BDE700A9C1099201CFEF70D
:1026B00021FE002807D1119BE5221A700123E37047
:1026C0000398FFF799F920B070BD73B5061C00247C
:1026D000B4420ED001ADFF230120291C2B7000F065
:1026E000BDFD2B78FF2B06D00020013400F092FEB8
:1026F000EEE7002000E0012076BDF7B5061C0F1CB8
:10270000C82501ACFF230120211C237000F0A6FD89
:102710002378FE2B02D0013D002DF2D13A1C301C53
:10272000FF2101F07CFA381C311C00F097FD0220DB
:10273000211C00F0B5FD0120FEBD000013B50224F0
:1027400000F0D0FD221C01A8034901F05FFA201C13
:1027500001A900F0A5FD13BDC045000013B502227C
:102760000A4901A801F052FA022001A900F098FDDF
:1027700000F0BEFDFA204000FFF7A7FF041E02D1C3
:10278000FFF7DCFF00E00124201C16BDC04500005F
:1027900043B237B5041C0D1C002B07DA372000218B
:1027A000FFF7F6FF01283ED87F231C400C2C12D1E6
:1027B00040236A46234313702B0E53702B0C9370E7
:1027C0002B0AD37001235371FF2315719371002CD1
:1027D0000AD195230BE0FFF7B1FFFFF7BFFF031C02
:1027E000FF20002B1FD0E3E7082C03D187236A4684
:1027F000537103E00C2C01D1072000E0062069464C
:1028000000F04EFD0A24FF236A460120694613703A
:1028100000F024FD6B46187843B2002B03DA013C2C
:10282000E4B2002CEFD13EBDF7B5061CFA20400003
:102830000F1CFFF74AFF051E22D001AC0023012028
:10284000211C6370277000F009FD23780125FD2B02
:1028500016D08020311C800000F022FDFF260220CF
:10286000211C2670667000F01BFD281C211C2670A0
:1028700000F0F4FC25781F231D40053D6B425D41AF
:10288000281CFEBDF0B5464997B0042601AD0231C3
:10289000321C281C01F0BAF9424B8022596992037C
:1028A000114359615A60404B0227DE601E209F6031
:1028B00000F0B0FD00F09EFC5022FF2102A801F0C4
:1028C000AEF9502002A900F0EBFC0020011CFFF73C
:1028D0005FFF041E012C01D0002450E0D521082008
:1028E0004900FFF755FF012828D1301C291C00F0B2
:1028F000B5FCAB78012BEFD1EB78AA2BECD1FA2405
:10290000A4008021A920C905FFF742FF002805D0B7
:102910000020013C00F07EFD002CF2D13A20002185
:10292000FFF736FF0028D7D10420291C00F096FCC1
:102930002B7804245A0622D50C2420E0A92000215B
:10294000FFF726FF261C012801D83C1CA926FA25E2
:10295000AD00301C0021FFF71BFF002806D000202F
:10296000013D00F057FD002DF3D1B5E78021102087
:102970008900FFF70DFF43425841404204400B4B92
:102980001C70FFF7DBFE0A4D002C05D02B780122CE
:1029900093432B7000F0DEFC2878C0B217B0F0BD76
:1029A000C045000000F00F4000900440D0F0FF1F31
:1029B00040F0FF1F014B1878C0B2704740F0FF1F76
:1029C00070B5051C141C0420002A2CD0164B0320C3
:1029D0001B78DA0727D4154B1B781A0700D4490255
:1029E00001230026A342764112239E1B301CFFF7D1
:1029F000CFFE002812D18021281C8900FFF77DFE20
:102A0000002805D080239B00013CED18002CF2D15A
:102A1000122E03D10C200021FFF7BAFE631E9C4149
:102A2000FFF78CFEE0B270BD40F0FF1FD0F0FF1F3B
:102A300070B5051C0E1C141C0420002A41D0214B2B
:102A400003201A78D1073CD41B7802205A0738D4C7
:102A50001D4B1B78190700D47602012C0CD11820CD
:102A6000311CFFF795FE002826D1281CFE21FFF718
:102A7000DBFE444244411FE00622134203D097206C
:102A8000211CFFF785FE1920311CFFF781FE00286D
:102A900012D1281CFC21FFF7C7FE002805D0802298
:102AA0009200013CAD18002CF3D10020FD21FFF76E
:102AB000BBFE002800D10124631E9C41FFF73EFEAF
:102AC000E0B270BD40F0FF1FD0F0FF1FF0B59C4B8F
:102AD0000C1C1978012595B029400326002900D047
:102AE0002AE1072800D11BE109D8A84220D00028FC
:102AF00018D0B04255D0042800D1ADE01BE13428F5
:102B000000D1DFE007D8322800D1D7E0332800D049
:102B100011E10920D7E0352800D1DBE0362800D1CB
:102B2000E8E008E1FFF71AFE46424641F6B235E01A
:102B30000920FFF72DFE051E01D001262EE004AF6F
:102B4000381C1021FFF7D9FD0028F6D03878FA7923
:102B500080097B7A397A012809D13F20024012048A
:102B6000090201325B18D3189B02236015E0B87983
:102B70008909304092008A188002121878790F2152
:102B80000140B87A1E40C0090918023176008B193D
:102B9000DBB20132093B9A4022602E1CFFF7CEFDCA
:102BA000CAE0684E04233278134028D08D20FFF706
:102BB000EFFD0190002801D00125ADE003AE281CF7
:102BC000311CFF27377000F06BFB04A81021FFF7C2
:102BD00094FD002800D19FE0281C311C377000F0C4
:102BE0005FFB3022391C08A801F019F8302008A931
:102BF00000F056FB6A46937E10221B091AE009205A
:102C0000191CFFF7C5FD0028D6D104AD281C1021E2
:102C1000FFF773FD0028CFD033789A070DD5AA7A35
:102C20003F231A40EB7A5200DB09D2186B7B01324A
:102C30009B09013B9A40131C0BE0EB7AAA7A032113
:102C400019405206C9005B09D20ECB18013201337C
:102C50005343236000255FE03A4E062332781A4240
:102C600001D1012668E004AD3320291CFFF72EFFB7
:102C70000028F6D12B789B0902D1AB7A5A06F0D501
:102C80003378216864681A0701D44902640220205D
:102C9000FFF77EFD0028E4D1211C2120FFF778FDFD
:102CA000011EDED12620FFF773FD0028D9D126486A
:102CB000FFF70BFD46424641F6B23DE0214B1B7843
:102CC000237036E00A20FFF763FD002824D1201C82
:102CD00010211CE03A20FFF75BFD00281CD11B49A6
:102CE00008A80231042200F091FF042008A900F096
:102CF000D7FAAFE78D20FFF74BFD00280CD108A9CC
:102D0000FF23281C0B7000F0CBFA201C4021FFF79A
:102D1000F4FC45424541EDB2FFF710FD2E1C0BE0DF
:102D20000B4A802094688003204390601A781543F2
:102D30001D700E1C00E00426301C15B0F0BDC0460E
:102D400040F0FF1FD0F0FF1F30750000C0450000AD
:102D500000F00F40064B8022596992050A435A61E0
:102D6000044BF9229A6001229A6120221A6070476E
:102D70000080044000B00340044B00221A60044B62
:102D8000044A59690A405A617047C04600B003407E
:102D900000800440FFFFFFDF014B18697047C04609
:102DA00000B00340034B802259695200114359611E
:102DB0005A60704700F00F40044B1B68002BFBD19A
:102DC000034B802252009A607047C046E0F0FF1F1C
:102DD00000F00F4010B50A4C2368002BFBD10138DE
:102DE00020600848016008780749087007490B709F
:102DF000074B1A60BFF35F8F064800F0FDFA10BD65
:102E0000E0F0FF1FD8F0FF1FE4F0FF1FDCF0FF1F12
:102E1000D4F0FF1F23080000224B012270B51A6274
:102E2000214B1A780A2A3BD8101CFDF78FFB060CA1
:102E30000C0C0C0C0C0C0C1B21001C4A80214900B2
:102E4000916001220CE01A4D802429781748640013
:102E5000CE0701D5446000E0846049082970013242
:102E60001A701DE0114A8021490051600A22F7E7DB
:102E7000104A116800290CD00F4801684C1C0460EE
:102E800048780B490870002119701368013B1360E2
:102E900006E000F0B9FA094B1B68002B00D09847F8
:102EA00070BDC046FC700340DCF0FF1F00F00F4017
:102EB000E4F0FF1FE0F0FF1FD8F0FF1FD4F0FF1F6A
:102EC00000B503688FB00093436880220193836844
:102ED00092050293C3681021039303690493436925
:102EE000059383690693C36912480793124B1B68C5
:102EF0000893124B1B680993114B1B680A93114BE3
:102F00001B680B93104B1B680D93104B1B680C93A5
:102F10000F4B9A600F4A5160802252049A6021231D
:102F20000370069A0C4900F0CDFEBFF34F8F00BE30
:102F30000FB000BD00F0FF1F28ED00E02CED00E019
:102F400030ED00E03CED00E034ED00E038ED00E075
:102F500000F00F4080F00F4006480000042071464A
:102F6000084202D0EFF3098001E0EFF308804169E5
:102F7000A6E700BE094B80225969D2000A435A6174
:102F8000074BA32212069A60012252421A60054A98
:102F90005A60A52212069A607047C046008004401D
:102FA00000200340B71DC10410B50023044A8B4222
:102FB00004D09C00045901331460F7E7106810BD79
:102FC00000200340024B034A59690A405A61704786
:102FD00000800440FFFBFFFF064B8022D9685202AD
:102FE0000A43DA60044B80225A715A7952B2002A9D
:102FF000FBDA7047003000F000000240014B132262
:10300000DA707047000002400D4B10B5984216D997
:103010000323034013D10B4C3022627163700A23E7
:103020006372030CDBB2237201236370C3B2000A24
:10303000C0B223726072FFF7CFFF6379637910BD6E
:10304000FF4F000000000240F7B55208051C0E1C9F
:1030500001920027019B9F4238D003203268736899
:1030600028402FD11A4C30216171607006206072A7
:10307000280CC0B2207201206070E8B22072280AC9
:10308000C0B2607202206070100AC0B26072032188
:10309000D0B220726170110E120CD2B26172227223
:1030A000042262701A0AD2B26272DAB22272052265
:1030B00062701A0E1B0CDBB262722372FFF78CFF78
:1030C00063796379083608350137C3E7F7BDC04631
:1030D000000002400E4B80225969D2050A435A6112
:1030E0000C4B01221A700C4BE3229A7003225A7087
:1030F00090221A70094BC42292009958FF208143F4
:10310000402001439950802252021A607047C04605
:1031100000800440E5F0FF1F0030074000E100E0C0
:1031200000BEBFF34F8F034A034BDA60BFF34F8FEC
:10313000C046FDE70400FA0500ED00E0F8B5194CC3
:103140008023A2689B031343A360FFF715FE164D6F
:10315000802380279B0510267F04A3604620AE6055
:10316000A76000F057F96760462000F053F96E60E1
:10317000462000F04FF980239B0563600B4B9122A2
:103180001A700B4B04221A610A4B0B4A59690B48FF
:103190000A405A610A4900F0B7FDBFF34F8F30BFB4
:1031A00001BEC04600F00F4080F00F4000300740E5
:1031B00000ED00E000800440FFDFFFFF00F0FF1F94
:1031C0003E48000008B5FFF7E7FD084A084B90426B
:1031D00002D81A68013200E000221A601B68002041
:1031E00009229A424041C0B208BDC046F208000020
:1031F000E8F0FF1F134B02215A6910B50A435A61C8
:10320000114A5960D06840242043D060546980201E
:10321000C0022043506159600C4B002207215A70B4
:1032200099700B4BC22189005C580A4820408024C9
:10323000E403204358508021C9001960064B1A70DE
:1032400010BDC04600F00F40008004400060074001
:1032500000E100E0FFFF00FFF0F0FF1F37B50B4B70
:103260000B4C0022D02522701D700A4D5A70296027
:10327000094D0818286009480270DA78D2B2019224
:103280000A785A712378002BFCD037BD00600740C4
:10329000F0F0FF1FF4F0FF1FECF0FF1FF1F0FF1F35
:1032A0000B4A002313B513700A4BD0241C700A4C30
:1032B00008182160094C097820600948012404702D
:1032C000D878C0B2019059711378002BFCD013BD8F
:1032D000F0F0FF1F00600740F4F0FF1FECF0FF1F4D
:1032E000F1F0FF1F014B02225A60704700F00F40BF
:1032F000014B02229A60704700F00F40104B82B0E1
:10330000DA78D2B200920F4A11780F4A002903D11D
:1033100059791068017002E05979C9B201911168B8
:10332000481C1060094A1268904202D04A785A71CB
:1033300004E050221A70064B01221A7002B0704746
:1033400000600740F1F0FF1FF4F0FF1FECF0FF1FDB
:10335000F0F0FF1F014B56229A7070470060074043
:103360000E4B02215A690A435A610D4B01221A6021
:103370000C4BC5228A4098580B4901409950802136
:10338000C90319609858C0210002000A09060143C8
:103390009950802212041A607047C0460080044091
:1033A0000070034000E100E0FFFF00FF074B8022B8
:1033B0001204DA678022D203DA67054B02221A6010
:1033C000044B5969914359617047C04604E100E0DC
:1033D000007003400080044008B5054B01221A61CB
:1033E0000022DA60034B1B68934200D0984708BD67
:1033F000FC700340F8F0FF1F024B03225861DA61B2
:103400007047C046FC700340014B0022DA617047F0
:10341000FC70034038B5041C00F07EFB051C00F076
:103420007BFB401BA042FAD338BD000013B5041C3F
:1034300000F072FC211C021C01AB0248FEF794FE56
:1034400013BDC046FCF0FF1F30B585B00D1C00F069
:1034500063FB02AC021C0C49201C00F033FC201C56
:10346000FFF7E4FF281CFFF7E1FF0D2323700A2379
:1034700063700023A370211C032201AB0348FEF7F5
:1034800073FE05B030BDC04644480000FCF0FF1F8D
:1034900010B50C4BA0B01C78002C10D101221A7072
:1034A00009490A220948FEF7BFFC09496846221C5F
:1034B000022300F007FC17206946FFF7C5FF20B084
:1034C00010BDC04624F3FF1F4B480000FCF0FF1F57
:1034D0005D48000008B5074B1B78002B09D032204F
:1034E0000549FFF7B1FF0548FEF759FF1E20FFF71A
:1034F00091FF08BD24F3FF1F73480000FCF0FF1F7D
:10350000F8B5041CFFF7E6FDFFF724FC201C0A2198
:10351000FDF726F8051C124C80239B05114F8026D1
:10352000A36076041023BB60281CA660FFF772FF1F
:1035300080239B05636010237B60281C6660FFF777
:1035400069FFFFF73FFE021EE5D10F200649FFF796
:1035500041FCFFF731FCFFF729FFFFF7EFFDC04605
:1035600000F00F4080F00F40834800000F4970B515
:103570000A68802580200E1C0D4BAD050D4C4004C3
:10358000012A05D0022A0AD010219D60616002E064
:1035900010215D60A16001325860326005E01022A8
:1035A0005D606260986000230B6070BDA002002027
:1035B00000F00F4080F00F40F7B5104C0191227AD7
:1035C0000123071C9A4217D126680D4A022396420E
:1035D00012D8FFF7CFFCA0252268ED019108281C26
:1035E000FFF7E2FC72590323824205D1A388019AB6
:1035F0003B80E38813800023181CFEBD105400009C
:10360000FCAF0100824B8422596992051143F0B549
:1036100059615A607F4A102150697F4C08435061BC
:103620008020800551609860916080225204A544FA
:103630009A60FFF795FEFFF7B5FB00F057FA0524F7
:10364000764877490122FEF7C5FB051E05D01420F8
:10365000013CFFF7DFFE002CF2D10420714900226B
:10366000FFF7B8FB002D02D0FA2040000DE219A8A8
:103670006D49FEF749FF002800D0F0E119A805A91F
:10368000FEF778FF002800D0E9E16C461D23E356E1
:103690001D34002B00D1E2E1201C2E2100F06BFB39
:1036A0000028EBD06149FCF7ABFF051EE6D1FFF720
:1036B000EFFE5F4908220BA800F0A8FA291C10228F
:1036C0000DA800F0ACFA211C18220BA800F02BFB6F
:1036D000221C584944A800F0F5FA6C2044A9FFF7D1
:1036E000B3FE44A80BA90122FEF79EFB071E00D0E3
:1036F000B5E120220BA911A800F029FB11A800F0C8
:103700000BFB11A908185F230138037024AC0BA828
:10371000FEF754FF11AA4849201C00F0D3FA7C2080
:10372000211CFFF791FE454D4549281C1022FDF74D
:1037300008FA444E4449301C2A1CFDF75BFB0497F1
:10374000321C231C479D83CA83C3C1CAC1C3C2CADA
:10375000C2C31268201C1A60FDF782FBFFF706FF48
:103760003A4E04AB44A8311C1022FEF747FC031E5E
:1037700031D124A8311C1022FDF78EFB04982D1A9C
:10378000202DEBD844A8311C102204ABFEF736FCE8
:103790000224002800D055E11022012324A8311C66
:1037A000FDF77AFB2A4C24A8211CFDF7C9FB04ABCA
:1037B00044A8311C1022FEF721FC231C04240028FD
:1037C00000D03FE1214A815C1A5C914205D1013071
:1037D0001028F7D103E0012434E1032432E16C46E0
:1037E00080201C4903AD0E34FFF72EFE281C211C3F
:1037F000FFF7E2FE431E9841C0B2009000282DD191
:103800002A88238824A8144900F05CFA84202BE03D
:1038100000F00F4080F00F40C4FCFFFF28F3FF1FB3
:10382000D54900007E480000934800009A480000F7
:10383000C64500009F480000B0480000AC010020D1
:103840001E4800005CF5FF1FE0450000ACFBFF1FB9
:103850009CFBFF1FC3480000D448000024A88C49EB
:10386000012200F02FFA862024A9FFF7EDFD44A8DD
:103870000021FEF7A3FD0124051E00D0DBE0FFF7C9
:10388000BDFB0495834D8449281C1022FDF759F98E
:10389000824F2A1C381C8249824BFDF7D6FB824E90
:1038A0001022311C04AB44A8FEF7A8FB7F4D311C4D
:1038B000231C01902A1C381CFDF7FCFB8022311CC4
:1038C000920004AB44A8FEF799FB01998022920074
:1038D0000843B1188022C4B2920004AB44A8FEF79A
:1038E0008DFB8023DB008022F1180443920004AB9F
:1038F00044A8FEF783FBE4B20443E4B2381C311C55
:103900002A1C60230194FDF7D5FB01982E1C02248C
:10391000002800D08FE00099654A664B002915D138
:10392000E85CA95C00020843634984468888032454
:10393000844500D27FE009D1604C61482C5D285C51
:10394000C988240220430424814274D2A95CEA5C21
:103950005B4B12020A43E95C584B24A8EB5CAC2495
:103960001B020B43574900F0ADF9562024A9FF3044
:10397000FFF76AFDA020C001FFF746FBA020311C25
:103980008022C001FFF760FBA420C001FFF73CFBD1
:1039900080229200A420B118C0018022FFF754FBBE
:1039A000A820C001FFF730FB8023DB00A820F1181E
:1039B000C0018022FFF748FBE401FFF7D7FD80221A
:1039C00044A83949920004ABFEF718FB002816D131
:1039D000049E002E15D0354D202333492A1C381C57
:1039E000FDF768FB201CFFF70FFB201C291C802221
:1039F000FFF72AFB049BE418002BDED101E005242D
:103A000019E08B203049FFF71FFD694603A80E31EE
:103A1000FFF7D2FD021E08D18F202C49FFF714FDBD
:103A20002B492C4800F070F919E024A82A4900F02D
:103A300049F994200CE024A82849221C00F042F9FE
:103A4000972005E024A82649221C00F03BF99A2083
:103A500024A9FFF7F9FC44A8FEF7A1FC0EE6FFF746
:103A600039FD694603A80E31FFF7A6FD00280BD1EA
:103A7000FFF7A8FA72B61B4BA022D2019A601A4B2C
:103A80001B68BFF34F8F98476420FFF739FDC0468E
:103A9000EA480000AC0100200E48000084F5FF1F3A
:103AA000E04500002E480000ACFBFF1F9CF5FF1F07
:103AB0001404000015040000105400001704000056
:103AC0001604000008490000234900003A4900009C
:103AD0005949000000F0FF1F6249000087490000BB
:103AE000AC49000000ED00E004500000074B084A1C
:103AF000C0215A60074A0906106A0002000A014301
:103B0000116200229A6007221A60704710E000E0FC
:103B10007F1A060000ED00E0014B18687047C046B0
:103B2000A4020020024B1A6801321A607047C04696
:103B3000A40200200E4B0F4A9A8001225A702322C1
:103B40001A700D4B882252045A620C4B0F2259787E
:103B50000A405A700A4A942111701A221A701A796E
:103B6000D106FCD419790C221142FBD17047C04612
:103B70000020054003E8FFFF0080044000400640AD
:103B80000050064008B5062000F07CF8012000F047
:103B900015FD0000084B10B5041C002B02D00021BD
:103BA00000E000BF054B1868836A002B00D09847DF
:103BB000201C00F003FDC04600000000CC490000BE
:103BC00070B50E4B0E4D0024ED1AAD101E1CAC420C
:103BD00004D0A300F35898470134F8E700F012FF2F
:103BE000084B094D0024ED1AAD101E1CAC4204D048
:103BF000A300F35898470134F8E770BD244A000049
:103C0000244A0000244A0000284A000010B500237E
:103C1000934203D0CC5CC4540133F9E710BD031CBC
:103C20008218934202D019700133FAE7704738B511
:103C3000041C0D1E1F2D04D91623036001204042D1
:103C40001FE0436C002B04D08A009A181368002BE5
:103C500008D1201C00F032F82A1C011C201C00F0A6
:103C60001BF80EE0012B0BD0591C03D11623036067
:103C7000012006E00024281C14609847201C00E066
:103C8000002038BD08B5034B011C1868FFF7CFFFB3
:103C900008BDC046A4F0FF1F38B5074C0023051C23
:103CA000081C111C236000F067FC431C03D123682F
:103CB000002B00D02B6038BDB402002008B500F006
:103CC00053FC08BD0EB400B59CB01DAB04CB8222E2
:103CD00002A992008A810A4A02908A604A610122FE
:103CE0005242CA81074A086110681D9A019300F088
:103CF000B3F8029A002313701CB008BC03B0184735
:103D0000FFFFFF7FA4F0FF1F031C0A7801311A7028
:103D10000133002AF9D170470023C25C0133002A25
:103D2000FBD1581E704710B5031C1C78002C0AD01C
:103D30000133FAE70C781C70002C07D0002A00D160
:103D40005A7001330131013A541CF3D110BD30B522
:103D5000031C002A07D00C7801335D1E013A2C7039
:103D60000131002CF5D19A18934203D0002119702B
:103D70000133F9E730BD38B50D1E08D00024291CE9
:103D800000F0DCFB031E05D0581C1C1CF7E700F0FC
:103D9000D5FB041C201C38BDF0B58D6885B0071C10
:103DA0000C1C03920193AB4245D390228B89D20025
:103DB00013423DD062690326564309692068F20F19
:103DC000401A96190290021C0198013212187610BE
:103DD000964200D2161C381C5A050FD5311C00F033
:103DE00021FB051E13D0029A2169FFF70FFFA2895C
:103DF000184B134080221343A38111E0321C00F0C2
:103E000065FB051E0CD1381C216900F0C3FA0C2398
:103E10003B60A389402213430120A381404217E065
:103E2000029B2561ED1825606661019DF61AA6606A
:103E30000198A84200D2019D2A1C2068039900F035
:103E400090FAA2680020531BA36023685D192560C7
:103E500005B0F0BD7FFBFFFFF0B59FB00390059369
:103E60008B890E1C171C19060FD53269002A0CD13C
:103E7000402100F0D7FA30603061002803D1039967
:103E80000C230B60C9E04023736106AD00236B6116
:103E900020236B763023AB763C1C2378002B03D198
:103EA000E21B029211D003E0252BF9D00134F4E794
:103EB0000398311C3A1C029BFFF76EFF013000D1C2
:103EC000A6E06969029A8B186B612378002B00D1F8
:103ED0009EE0012252426A606A4600235B3201344E
:103EE0002B60EB60AB601370AB654E4F2178381CD4
:103EF000052200F02BFA002807D0C71B2B680120F1
:103F0000B840184328600134EFE72B68D90603D581
:103F10006A4620215B3211701A0703D56A462B21AD
:103F20005B32117022782A2A01D0099B0EE0059A93
:103F3000111D12680591002A01DB099204E052422A
:103F4000EA60022213432B60013409E02278303A00
:103F5000092A04D80A214B4301349B18F6E7099338
:103F600023782E2B18D163782A2B09D1059B023494
:103F70001A1D1B680592002B0DDA01235B420AE033
:103F8000013400232278303A092A04D80A214B430D
:103F900001349B18F6E70793234F2178381C03223E
:103FA00000F0D4F9002806D0C71B2B684020B84089
:103FB00018432860013421781C480622671C2976A2
:103FC00000F0C4F9002812D0194B002B06D1059B34
:103FD0000722073393430833059314E005AB00939E
:103FE0000398291C321C134B00E000BF07E005AB0F
:103FF00000930398291C321C0E4B00F091F804909A
:104000000499013104D06A69049953186B6143E73C
:10401000B3895A0601D40B9801E0012040421FB039
:10402000F0BDC046D0490000D6490000DA49000082
:1040300000000000993D0000F7B5151C01930A69C6
:104040008B68061C0C1C934200DA131C221C2B608C
:1040500043321278002A01D001332B602068800699
:1040600002D52B6802332B60216806270F401FD032
:10407000231C43331B785A1E9341226892061FD596
:10408000E11840313020C870211C5A1C4531097894
:10409000A21840320233D17012E0221C301C019968
:1040A00019320123089FB847013011D0009F013712
:1040B0000097E0682968009F431A9F42EDDBD7E72D
:1040C000221C301C01994332089FB847013002D1AD
:1040D0000120404223E0206806212B68E26801406D
:1040E0000025042903D1D51AEB43DB171D40A26834
:1040F00023699A4201DDD31AED1800270097009F2B
:10410000AF420BDA221C301C01991A320123089F9E
:10411000B8470130DCD0009F0137EFE70020FEBD3B
:10412000F0B50D1C8BB043350692059007930495AE
:104130000B7E0C1C109A6E2B00D1A7E011D8632BBC
:1041400022D009D8002B00D1B0E0582B00D0C0E01D
:1041500045310B707B4D4EE0642B1CD0692B1AD07F
:10416000B7E0732B00D1A5E009D86F2B29D0702BB5
:1041700000D0AEE00E68202333430B6036E0752B91
:104180001FD0782B32D0A4E013680D1C191D4235C6
:1041900011601B689FE0216813680E0603D5191D86
:1041A00011601E6805E04806F9D5191D116000214F
:1041B0005E5E644B002E3BDA049D2D2276422A700F
:1041C00036E0216813680E0603D5191D11601E68BC
:1041D00004E04806F9D5191D1E881160594B227E4E
:1041E000039308276F2A1ED00A271CE0231C78217E
:1041F0004533554D197011682368081D03951060EB
:104200001E0601D50E6802E05806FBD50E88D907B8
:1042100002D52022134323601027002E03D12268E9
:1042200020239A432260231C002243331A7001E0AA
:1042300003930A276368A360002B03DB256804222D
:1042400095432560002E02D1049D002B0ED0049DC5
:10425000301C391CFCF7C8F90398013D435C301C45
:104260002B70391CFCF77CF9061EF1D1082F09D1FF
:104270002168C90706D5626823699A4202DC013DBC
:1042800030232B70049E731B23612AE00868136897
:104290004969050604D5181D10601B68196005E002
:1042A0004606F8D5181D10601B681980002323618D
:1042B000049D16E01368191D11601D68281CFFF786
:1042C0002BFD63682061984200D9236120696060FA
:1042D00004E0251C42352B7001232361049E00233A
:1042E0003370079E05980096211C09AA069BFFF7CC
:1042F000A3FE013002D10120404221E02A1C059892
:1043000006992369079DA8470130F4D02668B607AF
:1043100005D4099BE068984212DA181C10E00025C9
:10432000E0680999431A9D42F3DA221C0598069920
:1043300019320123079EB0470130DCD00135EFE789
:104340000BB0F0BDE1490000F2490000C9B282188B
:10435000904204D003788B4202D00130F8E700206D
:10436000704770B5814201D300230CE08C18A04245
:10437000FAD28518131C013B0BD351426618F65C28
:104380006918CE54F7E7934203D0CC5CC454013390
:10439000F9E770BD30B5002940D004390B68002B17
:1043A00000DAC9181E4A1368141C002B02D14B6096
:1043B000116033E099420FD208680A189A4205D179
:1043C00013685268C01808604A6000E04B602160C2
:1043D00024E08A4203D8131C5A68002AF9D11D68C8
:1043E0005C198C420BD10968691858181960904201
:1043F00014D114685268091919605A600EE08C4291
:1044000002D90C23036009E008680C18944203D118
:1044100014685268001908604A60596030BDC0468F
:10442000AC02002070B50323CD1C9D430835061C4B
:104430000C2D01D20C2501E0002D3FDB8D423DD338
:10444000204B1C681A1C211C002913D00868431B30
:104450000DD40B2B02D90B60CC181EE08C4202D17C
:10446000636813601AE0486860600C1C16E00C1C5E
:104470004968E9E7144C2068002803D1301C00F09B
:104480004BF82060301C291C00F046F8431C15D066
:10449000C41C03239C4384420AD12560201C0B309A
:1044A0000722231D9043C31A0BD05A42E25008E062
:1044B000211A301C00F030F80130EED10C233360AB
:1044C000002070BDAC020020A8020020F8B5061C38
:1044D0000C1C151C002904D1111CFFF7A3FF041CA0
:1044E00018E0002A03D1FFF755FF2C1C12E000F062
:1044F00031F8A8420ED2301C291CFFF793FF071E8B
:1045000007D0211C2A1CFFF781FB301C211CFFF760
:1045100041FF3C1C201CF8BD38B5074C0023051C8E
:10452000081C236000F030F8431C03D12368002BE3
:1045300000D02B6038BDC046B4020020C9B2037859
:10454000002B03D08B4204D00130F8E7002900D0C3
:10455000181C704704390B68181F002B02DAC85862
:104560001B18181F70470000024B582201204042C0
:104570001A607047B4020020024B582201204042CA
:104580001A607047B4020020094A1368002B0CD04F
:1045900018186946884202D81060181C7047054BED
:1045A0000C2201201A604042F8E7034B1360EFE74A
:1045B000B0020020B4020020B8020020FEE7C0468E
:1045C000FFFFFFFFFFFF6F62646C6F672F0000004B
:1045D00000000000000000000000000000000000DB
:1045E0001000000069090000690A0000637C777B05
:1045F000F26B6FC53001672BFED7AB76CA82C97DDF
:10460000FA5947F0ADD4A2AF9CA472C0B7FD93266F
:10461000363FF7CC34A5E5F171D8311504C723C373
:104620001896059A071280E2EB27B27509832C1AB7
:104630001B6E5AA0523BD6B329E32F8453D100ED11
:1046400020FCB15B6ACBBE394A4C58CFD0EFAAFBF5
:10465000434D338545F9027F503C9FA851A3408FBD
:10466000929D38F5BCB6DA2110FFF3D2CD0C13ECD5
:104670005F974417C4A77E3D645D197360814FDC6A
:10468000222A908846EEB814DE5E0BDBE0323A0A4E
:104690004906245CC2D3AC629195E479E7C8376DD2
:1046A0008DD54EA96C56F4EA657AAE08BA78252EF7
:1046B0001CA6B4C6E8DD741F4BBD8B8A703EB56680
:1046C0004803F60E613557B986C11D9EE1F8981171
:1046D00069D98E949B1E87E9CE5528DF8CA1890D60
:1046E000BFE6426841992D0FB054BB1652096AD5F6
:1046F0003036A538BF40A39E81F3D7FB7CE33982D7
:104700009B2FFF87348E4344C4DEE9CB547B943225
:10471000A6C2233DEE4C950B42FAC34E082EA1666D
:1047200028D924B2765BA2496D8BD12572F8F66444
:1047300086689816D4A45CCC5D65B6926C704850BF
:10474000FDEDB9DA5E154657A78D9D8490D8AB0074
:104750008CBCD30AF7E45805B8B34506D02C1E8F9D
:10476000CA3F0F02C1AFBD0301138A6B3A911141D9
:104770004F67DCEA97F2CFCEF0B4E67396AC7422C2
:10478000E7AD3585E2F937E81C75DF6E47F11A7140
:104790001D29C5896FB7620EAA18BE1BFC563E4B79
:1047A000C6D279209ADBC0FE78CD5AF41FDDA8333B
:1047B0008807C731B11210592780EC5F60517FA97B
:1047C00019B54A0D2DE57A9F93C99CEFA0E03B4DAA
:1047D000AE2AF5B0C8EBBB3C83539961172B047E1E
:1047E000BA77D626E169146355210C7D8D01020448
:1047F00008102040801B36222A2B2C3A3B3C3D3EA1
:104800003F5B5D7C7F002168662C25582C00B90831
:10481000F42C024D13A135626FEFF4CA05DBD760AB
:104820001F5D4324218D91BCAFB159D318FDEDA07C
:104830009C22C263E8F297F820B83F6752E82173E0
:1048400068646E002530356C6420006F62646C6FA4
:10485000672F7570646174652E747874004C6F678F
:10486000207374617274656420253032642E2530A3
:10487000326400456E64206F66206C6F67000D0A1D
:104880000D0A0024504D544B3136312C302A323829
:104890000D0A006F62646C6F67002E42494E004340
:1048A0006865636B696E672066696C6520257300B7
:1048B00046696C652072656E616D656420746F2059
:1048C00025730046696C6520766572696669656462
:1048D000204F4B0043757272656E7420766572735B
:1048E000696F6E2025642E2564004E6F2076616C02
:1048F000696420696E7465726E616C206669726DA0
:1049000077617265202564004E6577206669726D57
:10491000776172652076657273696F6E2025642EEB
:104920002564004E6577206669726D776172652037
:10493000696E7374616C6C6564004E65772066699E
:10494000726D77617265206F6B61792C2073746171
:104950007274696E672E2E2E0021757067645F6F0A
:104960006B004E6577206669726D7761726520769F
:104970006572696669636174696F6E206661696CEE
:10498000757265202564004E6577206669726D77C3
:1049900061726520696E7374616C6C6174696F6EAD
:1049A000206661696C7572652025640046696C65D6
:1049B00020766572696669636174696F6E206661ED
:1049C000696C7572652025640043000044F0FF1F88
:1049D000232D302B2000686C4C00656667454647E8
:1049E000003031323334353637383941424344456B
:1049F00046003031323334353637383961626364DA
:104A000065660000F8B5C046F8BC08BC9E46704715
:0C4A1000F8B5C046F8BC08BC9E467047D4
:084A1C0074BAFF7F01000000E5
:044A24005904000031
:044A28003104000055
:104A2C000100000000000000000000000000000079
:104A3C00000000000000000000000000000000006A
:104A4C0000000000C9490000000000000000000048
:104A5C00000000000000000000000000000000004A
:104A6C00000000000000000000000000000000003A
:104A7C00000000000000000000000000000000002A
:0C4A8C000000000044F0FF1F00000000CC
:0400000300000509EB
:00000001FF
